{
  "_format": "hh-sol-artifact-1",
  "contractName": "AccountFacet",
  "sourceName": "contracts/facets/AccountFacet.sol",
  "abi": [
    {
      "inputs": [],
      "stateMutability": "nonpayable",
      "type": "constructor"
    },
    {
      "inputs": [],
      "name": "AccountFacet__CallNotSuccessful",
      "type": "error"
    },
    {
      "inputs": [],
      "name": "AccountFacet__InitializationFailure",
      "type": "error"
    },
    {
      "inputs": [],
      "name": "AccountFacet__InvalidArrayLength",
      "type": "error"
    },
    {
      "inputs": [],
      "name": "AccountFacet__NonExistentVerificationFacet",
      "type": "error"
    },
    {
      "inputs": [],
      "name": "AccountFacet__RestrictionsFailure",
      "type": "error"
    },
    {
      "inputs": [
        {
          "internalType": "address",
          "name": "_initializationContractAddress",
          "type": "address"
        },
        {
          "internalType": "bytes",
          "name": "_calldata",
          "type": "bytes"
        }
      ],
      "name": "InitializationFunctionReverted",
      "type": "error"
    },
    {
      "inputs": [],
      "name": "LibAppStorage__AccountMustBeUninitialized",
      "type": "error"
    },
    {
      "anonymous": false,
      "inputs": [
        {
          "indexed": true,
          "internalType": "contract IEntryPoint",
          "name": "entryPoint",
          "type": "address"
        },
        {
          "indexed": true,
          "internalType": "bytes",
          "name": "ownerPublicKey",
          "type": "bytes"
        }
      ],
      "name": "AccountInitialized",
      "type": "event"
    },
    {
      "anonymous": false,
      "inputs": [
        {
          "indexed": true,
          "internalType": "address",
          "name": "withdrawAddress",
          "type": "address"
        },
        {
          "indexed": false,
          "internalType": "uint256",
          "name": "amount",
          "type": "uint256"
        }
      ],
      "name": "DepositWithdrawn",
      "type": "event"
    },
    {
      "anonymous": false,
      "inputs": [
        {
          "components": [
            {
              "internalType": "address",
              "name": "facetAddress",
              "type": "address"
            },
            {
              "internalType": "enum IDiamondCut.FacetCutAction",
              "name": "action",
              "type": "uint8"
            },
            {
              "internalType": "bytes4[]",
              "name": "functionSelectors",
              "type": "bytes4[]"
            }
          ],
          "indexed": false,
          "internalType": "struct IDiamondCut.FacetCut[]",
          "name": "_diamondCut",
          "type": "tuple[]"
        },
        {
          "indexed": false,
          "internalType": "address",
          "name": "_init",
          "type": "address"
        },
        {
          "indexed": false,
          "internalType": "bytes",
          "name": "_calldata",
          "type": "bytes"
        }
      ],
      "name": "DiamondCut",
      "type": "event"
    },
    {
      "anonymous": false,
      "inputs": [
        {
          "indexed": false,
          "internalType": "bytes32",
          "name": "",
          "type": "bytes32"
        }
      ],
      "name": "VerificationFailure",
      "type": "event"
    },
    {
      "anonymous": false,
      "inputs": [
        {
          "indexed": false,
          "internalType": "bytes32",
          "name": "",
          "type": "bytes32"
        }
      ],
      "name": "VerificationSuccess",
      "type": "event"
    },
    {
      "inputs": [],
      "name": "entryPoint",
      "outputs": [
        {
          "internalType": "contract IEntryPoint",
          "name": "",
          "type": "address"
        }
      ],
      "stateMutability": "view",
      "type": "function"
    },
    {
      "inputs": [
        {
          "internalType": "address",
          "name": "_dest",
          "type": "address"
        },
        {
          "internalType": "uint256",
          "name": "_value",
          "type": "uint256"
        },
        {
          "internalType": "bytes",
          "name": "_func",
          "type": "bytes"
        },
        {
          "internalType": "address",
          "name": "_approveToken",
          "type": "address"
        },
        {
          "internalType": "bytes",
          "name": "_approveFunc",
          "type": "bytes"
        }
      ],
      "name": "execute",
      "outputs": [],
      "stateMutability": "nonpayable",
      "type": "function"
    },
    {
      "inputs": [
        {
          "internalType": "address[]",
          "name": "_dest",
          "type": "address[]"
        },
        {
          "internalType": "uint256[]",
          "name": "_value",
          "type": "uint256[]"
        },
        {
          "internalType": "bytes[]",
          "name": "_func",
          "type": "bytes[]"
        }
      ],
      "name": "executeBatch",
      "outputs": [],
      "stateMutability": "nonpayable",
      "type": "function"
    },
    {
      "inputs": [],
      "name": "getDeposit",
      "outputs": [
        {
          "internalType": "uint256",
          "name": "",
          "type": "uint256"
        }
      ],
      "stateMutability": "view",
      "type": "function"
    },
    {
      "inputs": [],
      "name": "getNonce",
      "outputs": [
        {
          "internalType": "uint256",
          "name": "",
          "type": "uint256"
        }
      ],
      "stateMutability": "view",
      "type": "function"
    },
    {
      "inputs": [
        {
          "internalType": "address",
          "name": "_verificationFacet",
          "type": "address"
        },
        {
          "internalType": "address",
          "name": "_anEntryPoint",
          "type": "address"
        },
        {
          "internalType": "address",
          "name": "_facetRegistry",
          "type": "address"
        },
        {
          "internalType": "address",
          "name": "_defaultFallBackHandler",
          "type": "address"
        },
        {
          "internalType": "bytes",
          "name": "_ownerPublicKey",
          "type": "bytes"
        }
      ],
      "name": "initialize",
      "outputs": [
        {
          "internalType": "uint256",
          "name": "initSuccess",
          "type": "uint256"
        }
      ],
      "stateMutability": "nonpayable",
      "type": "function"
    },
    {
      "inputs": [
        {
          "components": [
            {
              "internalType": "address",
              "name": "sender",
              "type": "address"
            },
            {
              "internalType": "uint256",
              "name": "nonce",
              "type": "uint256"
            },
            {
              "internalType": "bytes",
              "name": "initCode",
              "type": "bytes"
            },
            {
              "internalType": "bytes",
              "name": "callData",
              "type": "bytes"
            },
            {
              "internalType": "uint256",
              "name": "callGasLimit",
              "type": "uint256"
            },
            {
              "internalType": "uint256",
              "name": "verificationGasLimit",
              "type": "uint256"
            },
            {
              "internalType": "uint256",
              "name": "preVerificationGas",
              "type": "uint256"
            },
            {
              "internalType": "uint256",
              "name": "maxFeePerGas",
              "type": "uint256"
            },
            {
              "internalType": "uint256",
              "name": "maxPriorityFeePerGas",
              "type": "uint256"
            },
            {
              "internalType": "bytes",
              "name": "paymasterAndData",
              "type": "bytes"
            },
            {
              "internalType": "bytes",
              "name": "signature",
              "type": "bytes"
            }
          ],
          "internalType": "struct UserOperation",
          "name": "userOp",
          "type": "tuple"
        },
        {
          "internalType": "bytes32",
          "name": "userOpHash",
          "type": "bytes32"
        },
        {
          "internalType": "uint256",
          "name": "missingAccountFunds",
          "type": "uint256"
        }
      ],
      "name": "validateUserOp",
      "outputs": [
        {
          "internalType": "uint256",
          "name": "validationData",
          "type": "uint256"
        }
      ],
      "stateMutability": "nonpayable",
      "type": "function"
    },
    {
      "inputs": [
        {
          "internalType": "address payable",
          "name": "withdrawAddress",
          "type": "address"
        },
        {
          "internalType": "uint256",
          "name": "amount",
          "type": "uint256"
        }
      ],
      "name": "withdrawDepositTo",
      "outputs": [],
      "stateMutability": "nonpayable",
      "type": "function"
    }
  ],
  "bytecode": "0x608060405234801561001057600080fd5b5061001961001e565b61008e565b600080805260208190527fad3228b676f7d3cd4284a5443f17f1962b36e491b30a40b2405849e597ba5fb554610100900460ff1615610070576040516338fc28cb60e01b815260040160405180910390fd5b600080805260209190915260409020805461ff001916610100179055565b6120148061009d6000396000f3fe608060405234801561001057600080fd5b50600436106100885760003560e01c80634d44560d1161005b5780634d44560d146100ee578063b0d691fe14610101578063c399ec881461012d578063d087d2881461013557600080fd5b806304e745be1461008d5780633a871cdd146100a257806347e1da2a146100c85780634a936417146100db575b600080fd5b6100a061009b36600461182a565b61013d565b005b6100b56100b03660046118cb565b6101e0565b6040519081526020015b60405180910390f35b6100a06100d6366004611964565b610206565b6100b56100e93660046119fe565b610316565b6100a06100fc366004611a7a565b61053a565b60015464010000000090046001600160a01b03166040516001600160a01b0390911681526020016100bf565b6100b561068a565b6100b561071e565b610145610777565b610186878787878080601f0160208091040260200160405190810160405280939291908181526020018383808284376000920191909152506107ed92505050565b6001600160a01b038316156101d7576101d783600084848080601f0160208091040260200160405190810160405280939291908181526020018383808284376000920191909152506107ed92505050565b50505050505050565b60006101ea610777565b6101f48484610864565b90506101ff82610a52565b9392505050565b61020e610777565b8481146102625760405162461bcd60e51b815260206004820152601360248201527f77726f6e67206172726179206c656e677468730000000000000000000000000060448201526064015b60405180910390fd5b60005b858110156101d75761030e87878381811061028257610282611aa6565b90506020020160208101906102979190611abc565b8686848181106102a9576102a9611aa6565b905060200201358585858181106102c2576102c2611aa6565b90506020028101906102d49190611ad9565b8080601f0160208091040260200160405190810160405280939291908181526020018383808284376000920191909152506107ed92505050565b600101610265565b6000610320610a9f565b600180546001600160a01b03888116640100000000027fffffffffffffffff0000000000000000000000000000000000000000ffffffff90921691909117909155600280548783167fffffffffffffffffffffffff0000000000000000000000000000000000000000918216179091557ffbe2251b7373a2f4926e35d626cf9838aaa83e46b43863a2eeb99b9122f2c2898054928716929091169190911790556103c987610b28565b600083836040516024016103de929190611b49565b60408051601f198184030181529181526020820180516001600160e01b03167fcd9b47e4000000000000000000000000000000000000000000000000000000001790525190915060009081906001600160a01b038b1690610440908590611b89565b600060405180830381855af49150503d806000811461047b576040519150601f19603f3d011682016040523d82523d6000602084013e610480565b606091505b509150915081158061049b575061049681611ba5565b600114155b156104d2576040517f1602372100000000000000000000000000000000000000000000000000000000815260040160405180910390fd5b6001935085856040516104e6929190611bcc565b60405190819003812060015490916401000000009091046001600160a01b0316907fd429ff0b972be4ae725700a373d05007287994e4c86cb83315b43ffa85b595fd90600090a35050509695505050505050565b6001600160a01b0382166105905760405162461bcd60e51b815260206004820152601860248201527f496e76616c6964207769746864726177206164647265737300000000000000006044820152606401610259565b610598610777565b600081156105a657816105ae565b6105ae61068a565b60015490915064010000000090046001600160a01b03166040517f205c28780000000000000000000000000000000000000000000000000000000081526001600160a01b03858116600483015260248201849052919091169063205c287890604401600060405180830381600087803b15801561062a57600080fd5b505af115801561063e573d6000803e3d6000fd5b50505050826001600160a01b03167f4482101800a5c2e900f4156e57e05e19ffd7b366cde579553d723fd3abb2180e8260405161067d91815260200190565b60405180910390a2505050565b6001546040517f70a0823100000000000000000000000000000000000000000000000000000000815230600482015260009164010000000090046001600160a01b0316906370a08231906024015b602060405180830381865afa1580156106f5573d6000803e3d6000fd5b505050506040513d601f19601f820116820180604052508101906107199190611bdc565b905090565b6001546040517f35567e1a0000000000000000000000000000000000000000000000000000000081523060048201526000602482018190529164010000000090046001600160a01b0316906335567e1a906044016106d8565b60015464010000000090046001600160a01b03166001600160a01b0316336001600160a01b0316146107eb5760405162461bcd60e51b815260206004820152601c60248201527f6163636f756e743a206e6f742066726f6d20456e747279506f696e74000000006044820152606401610259565b565b600080846001600160a01b031684846040516108099190611b89565b60006040518083038185875af1925050503d8060008114610846576040519150601f19603f3d011682016040523d82523d6000602084013e61084b565b606091505b50915091508161085d57805160208201fd5b5050505050565b60015460e01b6001600160e01b03191660009081527ffbe2251b7373a2f4926e35d626cf9838aaa83e46b43863a2eeb99b9122f2c285602052604081205460601c806108dc576040517f6eb2360200000000000000000000000000000000000000000000000000000000815260040160405180910390fd5b60015460405160009160e01b906108f99087908790602401611c3b565b604051602081830303815290604052906001600160e01b0319166020820180516001600160e01b0383818316178352505050509050600080836001600160a01b0316836040516109499190611b89565b600060405180830381855af49150503d8060008114610984576040519150601f19603f3d011682016040523d82523d6000602084013e610989565b606091505b5091509150816109c5576040517f3cbbb65000000000000000000000000000000000000000000000000000000000815260040160405180910390fd5b6109ce81611ba5565b94506000859003610a11576040518681527f19e781916118c373dadcb7776fae0a2dbb6bbdeedae143ce68031e22801ef8659060200160405180910390a1610a45565b6040518681527fbbfee2df7f28b899771f1015dc85d7840ff9f6162f23f6aa99686e8fbd2ce1319060200160405180910390a15b5050505092915050565b50565b8015610a4f57604051600090339060001990849084818181858888f193505050503d806000811461085d576040519150601f19603f3d011682016040523d82523d6000602084013e61085d565b600080805260208190527fad3228b676f7d3cd4284a5443f17f1962b36e491b30a40b2405849e597ba5fb554610100900460ff1615610b0a576040517f38fc28cb00000000000000000000000000000000000000000000000000000000815260040160405180910390fd5b600080805260209190915260409020805461ff001916610100179055565b604080516001808252818301909252600091816020015b60408051606080820183526000808352602083015291810191909152815260200190600190039081610b3f5790505090506000826001600160a01b0316633253960f6040518163ffffffff1660e01b8152600401602060405180830381865afa158015610bb0573d6000803e3d6000fd5b505050506040513d601f19601f82011682018060405250810190610bd49190611d54565b604080516003808252608082019092529192506000919060208201606080368337019050509050631626ba7e60e01b81600081518110610c1657610c16611aa6565b60200260200101906001600160e01b03191690816001600160e01b031916815250508181600181518110610c4c57610c4c611aa6565b6001600160e01b03199092166020928302919091019091015280517f8da5cb5b000000000000000000000000000000000000000000000000000000009082906002908110610c9c57610c9c611aa6565b6001600160e01b031990921660209283029190910182015260408051606081019091526001600160a01b0386168152908101600081526020018281525083600081518110610cec57610cec611aa6565b6020026020010181905250610d1283600060405180602001604052806000815250610d18565b50505050565b7ffbe2251b7373a2f4926e35d626cf9838aaa83e46b43863a2eeb99b9122f2c287547ffbe2251b7373a2f4926e35d626cf9838aaa83e46b43863a2eeb99b9122f2c2859061ffff811690819060009060071615610d875750600381901c60009081526001840160205260409020545b60005b8751811015610e0457610df783838a8481518110610daa57610daa611aa6565b6020026020010151600001518b8581518110610dc857610dc8611aa6565b6020026020010151602001518c8681518110610de657610de6611aa6565b602002602001015160400151610e87565b9093509150600101610d8a565b50828214610e205760028401805461ffff191661ffff84161790555b6007821615610e4257600382901c600090815260018501602052604090208190555b7f8faa70878671ccd212d20771b795c50af8fd3ff6cf27f4bde57e5d4de0aeb673878787604051610e7593929190611dc0565b60405180910390a16101d786866116bc565b600080807ffbe2251b7373a2f4926e35d626cf9838aaa83e46b43863a2eeb99b9122f2c28590506000845111610f255760405162461bcd60e51b815260206004820152602b60248201527f4c69624469616d6f6e644375743a204e6f2073656c6563746f727320696e206660448201527f6163657420746f206375740000000000000000000000000000000000000000006064820152608401610259565b6000856002811115610f3957610f39611d7e565b036110ac57610f6086604051806060016040528060248152602001611f6b6024913961179b565b60005b84518110156110a6576000858281518110610f8057610f80611aa6565b6020908102919091018101516001600160e01b03198116600090815291859052604090912054909150606081901c156110215760405162461bcd60e51b815260206004820152603560248201527f4c69624469616d6f6e644375743a2043616e2774206164642066756e6374696f60448201527f6e207468617420616c72656164792065786973747300000000000000000000006064820152608401610259565b6001600160e01b031980831660008181526020879052604090206bffffffffffffffffffffffff1960608d901b168e17905560e060058e901b811692831c199c909c1690821c179a81900361108a5760038c901c600090815260018601602052604081209b909b555b8b61109481611ed5565b9c505060019093019250610f63915050565b506116b0565b60018560028111156110c0576110c0611d7e565b036112f8576110e786604051806060016040528060288152602001611fb76028913961179b565b60005b84518110156110a657600085828151811061110757611107611aa6565b6020908102919091018101516001600160e01b03198116600090815291859052604090912054909150606081901c3081036111aa5760405162461bcd60e51b815260206004820152602f60248201527f4c69624469616d6f6e644375743a2043616e2774207265706c61636520696d6d60448201527f757461626c652066756e6374696f6e00000000000000000000000000000000006064820152608401610259565b896001600160a01b0316816001600160a01b0316036112315760405162461bcd60e51b815260206004820152603860248201527f4c69624469616d6f6e644375743a2043616e2774207265706c6163652066756e60448201527f6374696f6e20776974682073616d652066756e6374696f6e00000000000000006064820152608401610259565b6001600160a01b0381166112ad5760405162461bcd60e51b815260206004820152603860248201527f4c69624469616d6f6e644375743a2043616e2774207265706c6163652066756e60448201527f6374696f6e207468617420646f65736e277420657869737400000000000000006064820152608401610259565b506001600160e01b031990911660009081526020849052604090206bffffffffffffffffffffffff919091166bffffffffffffffffffffffff1960608a901b161790556001016110ea565b600285600281111561130c5761130c611d7e565b03611642576001600160a01b0386161561138e5760405162461bcd60e51b815260206004820152603660248201527f4c69624469616d6f6e644375743a2052656d6f7665206661636574206164647260448201527f657373206d7573742062652061646472657373283029000000000000000000006064820152608401610259565b600388901c6007891660005b86518110156116225760008a90036113d657826113b681611eee565b60008181526001870160205260409020549b509350600792506113e49050565b816113e081611eee565b9250505b6000806000808a85815181106113fc576113fc611aa6565b6020908102919091018101516001600160e01b031981166000908152918a9052604090912054909150606081901c61149c5760405162461bcd60e51b815260206004820152603760248201527f4c69624469616d6f6e644375743a2043616e27742072656d6f76652066756e6360448201527f74696f6e207468617420646f65736e27742065786973740000000000000000006064820152608401610259565b30606082901c036115155760405162461bcd60e51b815260206004820152602e60248201527f4c69624469616d6f6e644375743a2043616e27742072656d6f766520696d6d7560448201527f7461626c652066756e6374696f6e0000000000000000000000000000000000006064820152608401610259565b600587901b8f901b94506001600160e01b031980861690831614611570576001600160e01b03198516600090815260208a90526040902080546bffffffffffffffffffffffff19166bffffffffffffffffffffffff83161790555b6001600160e01b031991909116600090815260208990526040812055600381901c611fff16925060051b60e01690508582146115d5576000828152600188016020526040902080546001600160e01b031980841c19909116908516831c1790556115f9565b80836001600160e01b031916901c816001600160e01b031960001b901c198e16179c505b8460000361161757600086815260018801602052604081208190559c505b50505060010161139a565b508061162f836008611f05565b6116399190611f22565b995050506116b0565b60405162461bcd60e51b815260206004820152602760248201527f4c69624469616d6f6e644375743a20496e636f7272656374204661636574437560448201527f74416374696f6e000000000000000000000000000000000000000000000000006064820152608401610259565b50959694955050505050565b6001600160a01b0382166116ce575050565b6116f082604051806060016040528060288152602001611f8f6028913961179b565b600080836001600160a01b03168360405161170b9190611b89565b600060405180830381855af49150503d8060008114611746576040519150601f19603f3d011682016040523d82523d6000602084013e61174b565b606091505b509150915081610d12578051156117655780518082602001fd5b83836040517f192105d7000000000000000000000000000000000000000000000000000000008152600401610259929190611f35565b813b8181610d125760405162461bcd60e51b81526004016102599190611f57565b6001600160a01b0381168114610a4f57600080fd5b80356117dc816117bc565b919050565b60008083601f8401126117f357600080fd5b50813567ffffffffffffffff81111561180b57600080fd5b60208301915083602082850101111561182357600080fd5b9250929050565b600080600080600080600060a0888a03121561184557600080fd5b8735611850816117bc565b965060208801359550604088013567ffffffffffffffff8082111561187457600080fd5b6118808b838c016117e1565b909750955060608a01359150611895826117bc565b909350608089013590808211156118ab57600080fd5b506118b88a828b016117e1565b989b979a50959850939692959293505050565b6000806000606084860312156118e057600080fd5b833567ffffffffffffffff8111156118f757600080fd5b8401610160818703121561190a57600080fd5b95602085013595506040909401359392505050565b60008083601f84011261193157600080fd5b50813567ffffffffffffffff81111561194957600080fd5b6020830191508360208260051b850101111561182357600080fd5b6000806000806000806060878903121561197d57600080fd5b863567ffffffffffffffff8082111561199557600080fd5b6119a18a838b0161191f565b909850965060208901359150808211156119ba57600080fd5b6119c68a838b0161191f565b909650945060408901359150808211156119df57600080fd5b506119ec89828a0161191f565b979a9699509497509295939492505050565b60008060008060008060a08789031215611a1757600080fd5b8635611a22816117bc565b95506020870135611a32816117bc565b94506040870135611a42816117bc565b93506060870135611a52816117bc565b9250608087013567ffffffffffffffff811115611a6e57600080fd5b6119ec89828a016117e1565b60008060408385031215611a8d57600080fd5b8235611a98816117bc565b946020939093013593505050565b634e487b7160e01b600052603260045260246000fd5b600060208284031215611ace57600080fd5b81356101ff816117bc565b6000808335601e19843603018112611af057600080fd5b83018035915067ffffffffffffffff821115611b0b57600080fd5b60200191503681900382131561182357600080fd5b81835281816020850137506000828201602090810191909152601f909101601f19169091010190565b602081526000611b5d602083018486611b20565b949350505050565b60005b83811015611b80578181015183820152602001611b68565b50506000910152565b60008251611b9b818460208701611b65565b9190910192915050565b80516020808301519190811015611bc6576000198160200360031b1b821691505b50919050565b8183823760009101908152919050565b600060208284031215611bee57600080fd5b5051919050565b6000808335601e19843603018112611c0c57600080fd5b830160208101925035905067ffffffffffffffff811115611c2c57600080fd5b80360382131561182357600080fd5b60408152611c5c60408201611c4f856117d1565b6001600160a01b03169052565b602083013560608201526000611c756040850185611bf5565b610160806080860152611c8d6101a086018385611b20565b9250611c9c6060880188611bf5565b9250603f19808786030160a0880152611cb6858584611b20565b9450608089013560c088015260a089013560e0880152610100935060c089013584880152610120915060e089013582880152610140848a013581890152611cff838b018b611bf5565b95509250818887030184890152611d17868685611b20565b9550611d25818b018b611bf5565b955093505080878603016101808801525050611d42838383611b20565b93505050508260208301529392505050565b600060208284031215611d6657600080fd5b81516001600160e01b0319811681146101ff57600080fd5b634e487b7160e01b600052602160045260246000fd5b60008151808452611dac816020860160208601611b65565b601f01601f19169290920160200192915050565b60006060808301818452808751808352608092508286019150828160051b8701016020808b0160005b84811015611e8f57607f198a850301865281518885016001600160a01b0382511686528482015160038110611e2e57634e487b7160e01b600052602160045260246000fd5b868601526040918201519186018a905281519081905290840190600090898701905b80831015611e7a5783516001600160e01b0319168252928601926001929092019190860190611e50565b50978501979550505090820190600101611de9565b50506001600160a01b038a16908801528681036040880152611eb18189611d94565b9a9950505050505050505050565b634e487b7160e01b600052601160045260246000fd5b600060018201611ee757611ee7611ebf565b5060010190565b600081611efd57611efd611ebf565b506000190190565b8082028115828204841417611f1c57611f1c611ebf565b92915050565b80820180821115611f1c57611f1c611ebf565b6001600160a01b0383168152604060208201526000611b5d6040830184611d94565b6020815260006101ff6020830184611d9456fe4c69624469616d6f6e644375743a2041646420666163657420686173206e6f20636f64654c69624469616d6f6e644375743a205f696e6974206164647265737320686173206e6f20636f64654c69624469616d6f6e644375743a205265706c61636520666163657420686173206e6f20636f6465a2646970667358221220dec380adf418ad8b075bb5f170f14db9c06bf276ef819677b65353e51b104a3064736f6c63430008150033",
  "linkReferences": {},
  "deployedLinkReferences": {}
}