{
  "_format": "hh-sol-artifact-1",
  "contractName": "SafeHodlFactory",
  "sourceName": "contracts/SafeHodlFactory.sol",
  "abi": [
    {
      "inputs": [
        {
          "internalType": "address",
          "name": "_accountFacet",
          "type": "address"
        },
        {
          "internalType": "address",
          "name": "_entryPoint",
          "type": "address"
        },
        {
          "internalType": "address",
          "name": "_facetRegistry",
          "type": "address"
        },
        {
          "internalType": "address",
          "name": "_defaultFallback",
          "type": "address"
        }
      ],
      "stateMutability": "nonpayable",
      "type": "constructor"
    },
    {
      "anonymous": false,
      "inputs": [
        {
          "indexed": false,
          "internalType": "address",
          "name": "",
          "type": "address"
        }
      ],
      "name": "SafeHodlDeployed",
      "type": "event"
    },
    {
      "inputs": [],
      "name": "accountFacet",
      "outputs": [
        {
          "internalType": "address",
          "name": "",
          "type": "address"
        }
      ],
      "stateMutability": "view",
      "type": "function"
    },
    {
      "inputs": [
        {
          "internalType": "address",
          "name": "_verificationFacet",
          "type": "address"
        },
        {
          "internalType": "bytes",
          "name": "_owner",
          "type": "bytes"
        },
        {
          "internalType": "uint256",
          "name": "_salt",
          "type": "uint256"
        }
      ],
      "name": "createAccount",
      "outputs": [
        {
          "internalType": "contract SafeHodl",
          "name": "safeHodl",
          "type": "address"
        }
      ],
      "stateMutability": "nonpayable",
      "type": "function"
    },
    {
      "inputs": [],
      "name": "defaultFallback",
      "outputs": [
        {
          "internalType": "address",
          "name": "",
          "type": "address"
        }
      ],
      "stateMutability": "view",
      "type": "function"
    },
    {
      "inputs": [],
      "name": "entryPoint",
      "outputs": [
        {
          "internalType": "address",
          "name": "",
          "type": "address"
        }
      ],
      "stateMutability": "view",
      "type": "function"
    },
    {
      "inputs": [],
      "name": "facetRegistry",
      "outputs": [
        {
          "internalType": "address",
          "name": "",
          "type": "address"
        }
      ],
      "stateMutability": "view",
      "type": "function"
    },
    {
      "inputs": [
        {
          "internalType": "address",
          "name": "_verificationFacet",
          "type": "address"
        },
        {
          "internalType": "bytes",
          "name": "_owner",
          "type": "bytes"
        },
        {
          "internalType": "uint256",
          "name": "_salt",
          "type": "uint256"
        }
      ],
      "name": "getAddress",
      "outputs": [
        {
          "internalType": "address",
          "name": "safeHodlAddress",
          "type": "address"
        }
      ],
      "stateMutability": "view",
      "type": "function"
    },
    {
      "inputs": [
        {
          "internalType": "address",
          "name": "_accountFacet",
          "type": "address"
        },
        {
          "internalType": "address",
          "name": "_verificationFacet",
          "type": "address"
        },
        {
          "internalType": "address",
          "name": "_entryPoint",
          "type": "address"
        },
        {
          "internalType": "address",
          "name": "_facetRegistry",
          "type": "address"
        },
        {
          "internalType": "address",
          "name": "_defaultFallback",
          "type": "address"
        },
        {
          "internalType": "bytes",
          "name": "_ownerPublicKey",
          "type": "bytes"
        }
      ],
      "name": "getBytecode",
      "outputs": [
        {
          "internalType": "bytes",
          "name": "safeHodlBytecode",
          "type": "bytes"
        }
      ],
      "stateMutability": "pure",
      "type": "function"
    },
    {
      "inputs": [],
      "name": "getCreationCode",
      "outputs": [
        {
          "internalType": "bytes",
          "name": "creationCode",
          "type": "bytes"
        }
      ],
      "stateMutability": "pure",
      "type": "function"
    }
  ],
  "bytecode": "0x61010060405234801561001157600080fd5b50604051610e14380380610e148339810160408190526100309161006e565b6001600160a01b0393841660805291831660a052821660c0521660e0526100c2565b80516001600160a01b038116811461006957600080fd5b919050565b6000806000806080858703121561008457600080fd5b61008d85610052565b935061009b60208601610052565b92506100a960408601610052565b91506100b760608601610052565b905092959194509250565b60805160a05160c05160e051610ce26101326000396000818161012e0152818161027b015261041e01526000818160bf0152818161025a01526103fd0152600081816101560152818161023901526103dc01526000818161017e0152818161021701526103ba0152610ce26000f3fe60806040523480156200001157600080fd5b5060043610620000925760003560e01c806344409a82116200006257806344409a821462000128578063b0d691fe1462000150578063b0f5d4641462000178578063c8a7adf514620001a057600080fd5b8062c194db14620000975780630a1acd7314620000b9578063296601cd14620000fa57806333bb64a71462000111575b600080fd5b620000a1620001b7565b604051620000b09190620004f6565b60405180910390f35b620000e17f000000000000000000000000000000000000000000000000000000000000000081565b6040516001600160a01b039091168152602001620000b0565b620000e16200010b36600462000594565b620001e3565b620000a162000122366004620005f4565b62000328565b620000e17f000000000000000000000000000000000000000000000000000000000000000081565b620000e17f000000000000000000000000000000000000000000000000000000000000000081565b620000e17f000000000000000000000000000000000000000000000000000000000000000081565b620000e1620001b136600462000594565b620003b1565b606060405180602001620001cb90620004c2565b601f1982820381018352601f90910116604052919050565b600080620001f486868686620003b1565b90506001600160a01b0381163b8015620002115750905062000320565b8360001b7f0000000000000000000000000000000000000000000000000000000000000000887f00000000000000000000000000000000000000000000000000000000000000007f00000000000000000000000000000000000000000000000000000000000000007f00000000000000000000000000000000000000000000000000000000000000008b8b604051620002aa90620004c2565b620002bc979695949392919062000699565b8190604051809103906000f5905080158015620002dd573d6000803e3d6000fd5b506040516001600160a01b03821681529093507f73b033a4665ecf42ac5e9b46297afcb0bf36dab85d91ef9e8ab2f4bfa6faf1059060200160405180910390a150505b949350505050565b60606000604051806020016200033e90620004c2565b6020820181038252601f19601f820116604052509050808989898989898960405160200162000374979695949392919062000699565b60408051601f198184030181529082905262000394929160200162000701565b604051602081830303815290604052915050979650505050505050565b600080620004457f0000000000000000000000000000000000000000000000000000000000000000877f00000000000000000000000000000000000000000000000000000000000000007f00000000000000000000000000000000000000000000000000000000000000007f00000000000000000000000000000000000000000000000000000000000000008a8a62000328565b8051602091820120604080517fff00000000000000000000000000000000000000000000000000000000000000818501523060601b6bffffffffffffffffffffffff191660218201526035810196909652605580870192909252805180870390920182526075909501909452835193019290922095945050505050565b610578806200073583390190565b60005b83811015620004ed578181015183820152602001620004d3565b50506000910152565b602081526000825180602084015262000517816040850160208701620004d0565b601f01601f19169190910160400192915050565b80356001600160a01b03811681146200054357600080fd5b919050565b60008083601f8401126200055b57600080fd5b50813567ffffffffffffffff8111156200057457600080fd5b6020830191508360208285010111156200058d57600080fd5b9250929050565b60008060008060608587031215620005ab57600080fd5b620005b6856200052b565b9350602085013567ffffffffffffffff811115620005d357600080fd5b620005e18782880162000548565b9598909750949560400135949350505050565b600080600080600080600060c0888a0312156200061057600080fd5b6200061b886200052b565b96506200062b602089016200052b565b95506200063b604089016200052b565b94506200064b606089016200052b565b93506200065b608089016200052b565b925060a088013567ffffffffffffffff8111156200067857600080fd5b620006868a828b0162000548565b989b979a50959850939692959293505050565b60006001600160a01b03808a16835280891660208401528088166040840152808716606084015280861660808401525060c060a08301528260c0830152828460e0840137600060e0848401015260e0601f19601f850116830101905098975050505050505050565b6000835162000715818460208801620004d0565b8351908301906200072b818360208801620004d0565b0194935050505056fe608060405260405161057838038061057883398101604081905261002291610163565b6000858585858560405160240161003d959493929190610264565b60408051601f198184030181529181526020820180516001600160e01b0316634a93641760e01b1790525190915060009081906001600160a01b038a16906100869085906102c3565b600060405180830381855af49150503d80600081146100c1576040519150601f19603f3d011682016040523d82523d6000602084013e6100c6565b606091505b50915091508115806100e157506100dc816102df565b600114155b156100ff576040516361facc5160e01b815260040160405180910390fd5b505050505050505050610306565b80516001600160a01b038116811461012457600080fd5b919050565b634e487b7160e01b600052604160045260246000fd5b60005b8381101561015a578181015183820152602001610142565b50506000910152565b60008060008060008060c0878903121561017c57600080fd5b6101858761010d565b95506101936020880161010d565b94506101a16040880161010d565b93506101af6060880161010d565b92506101bd6080880161010d565b60a08801519092506001600160401b03808211156101da57600080fd5b818901915089601f8301126101ee57600080fd5b81518181111561020057610200610129565b604051601f8201601f19908116603f0116810190838211818310171561022857610228610129565b816040528281528c602084870101111561024157600080fd5b61025283602083016020880161013f565b80955050505050509295509295509295565b600060018060a01b0380881683528087166020840152808616604084015280851660608401525060a0608083015282518060a08401526102ab8160c085016020870161013f565b601f01601f19169190910160c0019695505050505050565b600082516102d581846020870161013f565b9190910192915050565b80516020808301519190811015610300576000198160200360031b1b821691505b50919050565b610263806103156000396000f3fe60806040523661000b57005b600080357fffffffff000000000000000000000000000000000000000000000000000000001681527f58fea468f8469d7ae23de06089f8990202140141ac5e41d1cb428061b0a86e666020819052604090912054819060601c80610125576004838101546040517fcdffacc60000000000000000000000000000000000000000000000000000000081526000357fffffffff00000000000000000000000000000000000000000000000000000000169281019290925273ffffffffffffffffffffffffffffffffffffffff169063cdffacc690602401602060405180830381865afa1580156100fe573d6000803e3d6000fd5b505050506040513d601f19601f8201168201806040525081019061012291906101f0565b90505b73ffffffffffffffffffffffffffffffffffffffff81166101cc576040517f08c379a000000000000000000000000000000000000000000000000000000000815260206004820152602160248201527f53616665486f646c3a2046756e6374696f6e20646f6573206e6f74206578697360448201527f7400000000000000000000000000000000000000000000000000000000000000606482015260840160405180910390fd5b3660008037600080366000845af43d6000803e8080156101eb573d6000f35b3d6000fd5b60006020828403121561020257600080fd5b815173ffffffffffffffffffffffffffffffffffffffff8116811461022657600080fd5b939250505056fea2646970667358221220ca81244e97ea5b8188a24e7802c80b544e3de0cb3f7e74276df5fbe2f2b00e1d64736f6c63430008150033a26469706673582212209533f52547d990782e4ccfe3f9d6cbee96a58bee91f25a7ac582fd961292492364736f6c63430008150033",
  "linkReferences": {},
  "deployedLinkReferences": {}
}